:100000004FC000006AC0000068C0000066C0000069
:1000100064C0000062C0000060C000005EC000005C
:100020005CC000005AC00000D0C2000056C00000F2
:1000300054C0000052C0000050C000004EC000007C
:100040009DC200004AC0000048C0000046C0000039
:1000500044C0000042C0000040C000003EC000009C
:100060003CC000003AC0000038C0000036C00000AC
:1000700034C0000032C0000030C000002EC00000BC
:100080002CC000002AC0000028C0000012030B038F
:100090001E030B0318030B031E03120312031803A2
:1000A00011241FBECFEFD0E1DEBFCDBF11E0A0E035
:1000B000B1E0EAE8F9E000E00BBF02C007900D9262
:1000C000A230B107D9F721E0A2E0B1E001C01D9252
:1000D000AD30B207E1F750D156C492CFAC0190E0F9
:1000E00003C00F920F909F5F292F30E02417350730
:1000F000C0F308950F931F93CF93DF938C01C0E05B
:10010000D0E00DC08AEF90E0E9DF8AEF90E0E6DF13
:100110008AEF90E0E3DF8AEF90E0E0DF2196C017FE
:10012000D10780F3DF91CF911F910F91089592B184
:100130009E7F92B992B1926092B91BB898E19AB938
:1001400096E0909395001092900089B908955F9B76
:10015000FECF8CB19BB190689BB908955D9BFECF9B
:100160008CB98BB180628BB90895CF93DF93806C8B
:1001700087B987EA86B986B1806486B9349BFECF99
:1001800086B1806186B984B1C5B1D0E0DC2FCC27BF
:10019000C82B17B816B88AE090E0ACDFCE01DF912B
:1001A000CF91089543B340930A0121E030E0B901B3
:1001B00002C0660F771F8A95E2F7CB0160930B01AF
:1001C000842309F081E00895E4E6F0E090819760EF
:1001D0009083E5E6F0E090819E7F908327E01BC04E
:1001E000909165009B7F482F50E0022E02C05595EC
:1001F00047950A94E2F740FF02C034E001C030E0C6
:10020000932BE5E6F0E0908390819260908390815B
:100210009D7F9083215022231CF7E5E6F0E080814A
:100220008160808308958FB5836A8FBD8EB58260AB
:100230008EBD10927A001DBC1CBC1BBC1ABC19BC24
:1002400018BC08958C3441F0823519F0813459F48A
:1002500006C07BBD6ABD089579BD68BD08957BBDAC
:100260006ABD79BD68BD08959BB3907F9BBB8093A9
:100270000C019BB3892B8BBB08951092050160E1A3
:1002800071E081E4DFDF86E0EFCF08951092050191
:1002900060E272E082E5D6DF60E070E08CE4D2DFFD
:1002A00086E0E2CF08951092050160E070E082E5FB
:1002B000C9DF60E272E08CE4C5DF86E0D5CF089547
:1002C00081E08093050160E571E081E4BBDF89E0B6
:1002D000CBDF2FE78AE196E0215080409040E1F7A4
:1002E00000C00000089510920501C7DF2FE78FE4DA
:1002F00092E1215080409040E1F700C0000060E2B0
:1003000072E082E59FDF60E272E08CE49BDF8AE0CE
:10031000ABDF2FEF89E698E1215080409040E1F774
:1003200000C00000089510920501A7DF2FE78FE4B9
:1003300092E1215080409040E1F700C0000060E26F
:1003400072E082E57FDF60E272E08CE47BDF85E0D3
:100350008BDF2FEF89E698E1215080409040E1F754
:1003600000C0000008951092050180E07DCF08953F
:1003700080E3F4DEECCE0895CF93DF93CDB7DEB704
:1003800060970FB6F894DEBF0FBECDBF87B3816014
:1003900087BB88B3816088BB80E816DF84B38D7F1C
:1003A00084BBFE01319688E0DF011D928A95E9F752
:1003B00071D139DF83E0BBDE80E089D180E087D175
:1003C00084E0D3DE7C019A83898385E0CEDE9C8342
:1003D0008B8386E0CADE9E838D8387E0C6DE9887A6
:1003E0008F83970141E016C0E42FF0E0EE0FFF1F6E
:1003F00081E090E08C0F9D1FE80FF91F80819181B3
:100400008E159F0508F07C012817390708F4C901EB
:100410004F5F9C01443040F3E21AF30AB701660FC4
:10042000771F6E0D7F1D660F771F80E090E0B1D1C2
:100430002FE632E143E05EE33AD27FD1162F862FDA
:1004400046D1812F44D1FE01399688E0DF011D920B
:100450008A95E9F710E00CC0E12EF12C812FA2DE85
:10046000E9E0F0E0EC0FFD1FEE0DFF1D80831F5F44
:10047000183090F3FA8480910401F81224C09B850F
:10048000891321C09C8589131EC09D8589131BC0BB
:100490009E85891318C09F85891315C064DF68DFA6
:1004A000863611F4EADE0FC08C3611F41CDF0BC067
:1004B000823711F438DF07C0823611F401DF03C040
:1004C000893609F450DF1C8580910401181719F052
:1004D0009D8589131AC0998580910101981315C0D3
:1004E000F81213C09B85891310C09E8589130DC017
:1004F0009F8589130AC09889891307C080910501D7
:10050000813011F4DDDE01C0B8DEE98480910401A0
:10051000E81629F0F81619F09B85891311C080910F
:10052000010118130DC09D8589130AC09E8589138A
:1005300007C09F85891304C09889891301C0A6DE6E
:100540009E8580910401981731F09F85891719F0D5
:10055000988989130FC08091010118130BC09D85E4
:10056000891308C0E81206C0F81204C09B858913DD
:1005700001C099DE82E390E0BDDD6CCF1F920F9247
:100580000FB60F9211248F939F93F89485EF82BF3B
:10059000CC9B10C080910001882379F080910201EA
:1005A00090910301019690930301809302011092B0
:1005B000000103C081E08093000178949F918F91A6
:1005C0000F900FBE0F901F9018951F920F920FB6AD
:1005D0000F9211240BB60F928F939F93AF93BF93FB
:1005E000EF93FF93F8948FEA84BD809109018F5FA8
:1005F000809309018D3209F03FC010920901E0910A
:100600000C018E2F90E0FC013197EA30F105B0F437
:10061000EA5BFF4FAFC184E08093080181E08093E3
:10062000060114C088E080930801109206010EC0F4
:100630008CE0809308011092060108C088B3837F84
:1006400088BB1092080181E0809306018091070128
:1006500081110BC080910601811103C088B3837F93
:1006600088BB81E08093070107C098B3809108019F
:10067000892B88BB109207017894FF91EF91BF916D
:10068000AF919F918F910F900BBE0F900FBE0F9067
:100690001F9018958AB38F608ABB1BBA9FEF97BBD8
:1006A00081E088BB14BA15BA82B18C6182B983B17A
:1006B000886183B981B3806C81BB82B3806C82BB5B
:1006C000109261001092620090936400089590E18E
:1006D000899FA0011124E5E6F0E08081816080839C
:1006E0000000808182608083000080818D7F808314
:1006F000000080818E7F8083000020E01BC0E5E643
:10070000F0E09081926090830000552324F4808172
:100710008460808305C0E5E6F0E080818B7F808384
:100720000000E5E6F0E090819D7F90830000440F9B
:10073000551F2F5F203118F3089598D088F09F57E8
:1007400090F0B92F9927B751A0F0D1F0660F771F1D
:10075000881F991F1AF0BA95C9F712C0B13081F0FD
:100760009FD0B1E008959CC0672F782F8827B85F8D
:1007700039F0B93FCCF3869577956795B395D9F75E
:100780003EF490958095709561957F4F8F4F9F4F68
:100790000895E89409C097FB3EF490958095709574
:1007A00061957F4F8F4F9F4F9923A9F0F92F96E9BD
:1007B000BB279395F695879577956795B795F11132
:1007C000F8CFFAF4BB0F11F460FF1BC06F5F7F4FCF
:1007D0008F4F9F4F16C0882311F096E911C07723E1
:1007E00021F09EE8872F762F05C0662371F096E8EA
:1007F000862F70E060E02AF09A95660F771F881FB9
:10080000DAF7880F9695879597F9089597F99F6776
:1008100080E870E060E008959FEF80EC0895002488
:100820000A941616170618060906089500240A9455
:1008300012161306140605060895092E0394000CDB
:1008400011F4882352F0BB0F40F4BF2B11F460FF6A
:1008500004C06F5F7F4F8F4F9F4F089557FD905893
:10086000440F551F59F05F3F71F04795880F97FB74
:10087000991F61F09F3F79F087950895121613062E
:100880001406551FF2CF4695F1DF08C0161617065D
:100890001806991FF1CF8695710561050894089592
:1008A000E894BB2766277727CB0197F908950BD0EB
:1008B000C4CFB5DF28F0BADF18F0952309F0A6CF32
:1008C000ABCF1124EECFCADFA0F3959FD1F3950FE4
:1008D00050E0551F629FF001729FBB27F00DB11DC4
:1008E000639FAA27F00DB11DAA1F649F6627B00D54
:1008F000A11D661F829F2227B00DA11D621F739F3D
:10090000B00DA11D621F839FA00D611D221F749F4A
:100910003327A00D611D231F849F600D211D822F91
:10092000762F6A2F11249F5750408AF0E1F08823D8
:100930004AF0EE0FFF1FBB1F661F771F881F9150E5
:100940005040A9F79E3F510570F060CFAACF5F3F9E
:10095000ECF3983EDCF3869577956795B795F79518
:10096000E7959F5FC1F7FE2B880F911D96958795A0
:1009700097F90895EE0FFF1F0024001C0BBE07908F
:0A098000F691E02D0994F894FFCFE2
:02098A00010169
:00000001FF
